{
  "_format": "hh-sol-artifact-1",
  "contractName": "SimpleDAO",
  "sourceName": "contracts/SimpleDAO.sol",
  "abi": [
    {
      "inputs": [
        {
          "internalType": "uint256",
          "name": "initialSupply",
          "type": "uint256"
        }
      ],
      "stateMutability": "nonpayable",
      "type": "constructor"
    },
    {
      "anonymous": false,
      "inputs": [
        {
          "indexed": false,
          "internalType": "uint256",
          "name": "proposalId",
          "type": "uint256"
        },
        {
          "indexed": false,
          "internalType": "string",
          "name": "description",
          "type": "string"
        }
      ],
      "name": "ProposalCreated",
      "type": "event"
    },
    {
      "anonymous": false,
      "inputs": [
        {
          "indexed": false,
          "internalType": "uint256",
          "name": "proposalId",
          "type": "uint256"
        },
        {
          "indexed": false,
          "internalType": "address",
          "name": "voter",
          "type": "address"
        }
      ],
      "name": "Voted",
      "type": "event"
    },
    {
      "inputs": [
        {
          "internalType": "string",
          "name": "description",
          "type": "string"
        }
      ],
      "name": "createProposal",
      "outputs": [],
      "stateMutability": "nonpayable",
      "type": "function"
    },
    {
      "inputs": [
        {
          "internalType": "uint256",
          "name": "proposalId",
          "type": "uint256"
        }
      ],
      "name": "getProposal",
      "outputs": [
        {
          "internalType": "string",
          "name": "description",
          "type": "string"
        },
        {
          "internalType": "uint256",
          "name": "voteCount",
          "type": "uint256"
        },
        {
          "internalType": "address",
          "name": "proposer",
          "type": "address"
        }
      ],
      "stateMutability": "view",
      "type": "function"
    },
    {
      "inputs": [
        {
          "internalType": "address",
          "name": "",
          "type": "address"
        }
      ],
      "name": "hasVoted",
      "outputs": [
        {
          "internalType": "bool",
          "name": "",
          "type": "bool"
        }
      ],
      "stateMutability": "view",
      "type": "function"
    },
    {
      "inputs": [],
      "name": "proposalCount",
      "outputs": [
        {
          "internalType": "uint256",
          "name": "",
          "type": "uint256"
        }
      ],
      "stateMutability": "view",
      "type": "function"
    },
    {
      "inputs": [
        {
          "internalType": "uint256",
          "name": "",
          "type": "uint256"
        }
      ],
      "name": "proposals",
      "outputs": [
        {
          "internalType": "string",
          "name": "description",
          "type": "string"
        },
        {
          "internalType": "uint256",
          "name": "voteCount",
          "type": "uint256"
        },
        {
          "internalType": "address",
          "name": "proposer",
          "type": "address"
        }
      ],
      "stateMutability": "view",
      "type": "function"
    },
    {
      "inputs": [
        {
          "internalType": "address",
          "name": "",
          "type": "address"
        }
      ],
      "name": "tokenBalances",
      "outputs": [
        {
          "internalType": "uint256",
          "name": "",
          "type": "uint256"
        }
      ],
      "stateMutability": "view",
      "type": "function"
    },
    {
      "inputs": [],
      "name": "totalTokens",
      "outputs": [
        {
          "internalType": "uint256",
          "name": "",
          "type": "uint256"
        }
      ],
      "stateMutability": "view",
      "type": "function"
    },
    {
      "inputs": [
        {
          "internalType": "uint256",
          "name": "proposalId",
          "type": "uint256"
        }
      ],
      "name": "vote",
      "outputs": [],
      "stateMutability": "nonpayable",
      "type": "function"
    }
  ],
  "bytecode": "0x608060405234801561001057600080fd5b50604051610fb9380380610fb983398181016040528101906100329190610098565b80600160003373ffffffffffffffffffffffffffffffffffffffff1673ffffffffffffffffffffffffffffffffffffffff1681526020019081526020016000208190555080600481905550506100e2565b600081519050610092816100cb565b92915050565b6000602082840312156100aa57600080fd5b60006100b884828501610083565b91505092915050565b6000819050919050565b6100d4816100c1565b81146100df57600080fd5b50565b610ec8806100f16000396000f3fe608060405234801561001057600080fd5b50600436106100885760003560e01c8063523fba7f1161005b578063523fba7f146101275780637e1c0c0914610157578063c7f758a814610175578063da35c664146101a757610088565b80630121b93f1461008d578063013cf08b146100a957806309eef43e146100db57806349c2a1a61461010b575b600080fd5b6100a760048036038101906100a2919061094c565b6101c5565b005b6100c360048036038101906100be919061094c565b6103d3565b6040516100d293929190610adc565b60405180910390f35b6100f560048036038101906100f091906108e2565b6104a5565b6040516101029190610ac1565b60405180910390f35b6101256004803603810190610120919061090b565b6104c5565b005b610141600480360381019061013c91906108e2565b610654565b60405161014e9190610b7a565b60405180910390f35b61015f61066c565b60405161016c9190610b7a565b60405180910390f35b61018f600480360381019061018a919061094c565b610672565b60405161019e93929190610adc565b60405180910390f35b6101af6107a7565b6040516101bc9190610b7a565b60405180910390f35b6000600160003373ffffffffffffffffffffffffffffffffffffffff1673ffffffffffffffffffffffffffffffffffffffff1681526020019081526020016000205411610247576040517f08c379a000000000000000000000000000000000000000000000000000000000815260040161023e90610b3a565b60405180910390fd5b600260003373ffffffffffffffffffffffffffffffffffffffff1673ffffffffffffffffffffffffffffffffffffffff16815260200190815260200160002060009054906101000a900460ff16156102d4576040517f08c379a00000000000000000000000000000000000000000000000000000000081526004016102cb90610b5a565b60405180910390fd5b600160003373ffffffffffffffffffffffffffffffffffffffff1673ffffffffffffffffffffffffffffffffffffffff1681526020019081526020016000205460008083815260200190815260200160002060010160008282546103389190610c6b565b925050819055506001600260003373ffffffffffffffffffffffffffffffffffffffff1673ffffffffffffffffffffffffffffffffffffffff16815260200190815260200160002060006101000a81548160ff0219169083151502179055507f030b0f8dcd86a031eddb071f91882edeac8173663ba775713b677b42b51be44b81336040516103c8929190610b95565b60405180910390a150565b60006020528060005260406000206000915090508060000180546103f690610d4b565b80601f016020809104026020016040519081016040528092919081815260200182805461042290610d4b565b801561046f5780601f106104445761010080835404028352916020019161046f565b820191906000526020600020905b81548152906001019060200180831161045257829003601f168201915b5050505050908060010154908060020160009054906101000a900473ffffffffffffffffffffffffffffffffffffffff16905083565b60026020528060005260406000206000915054906101000a900460ff1681565b6000600160003373ffffffffffffffffffffffffffffffffffffffff1673ffffffffffffffffffffffffffffffffffffffff1681526020019081526020016000205411610547576040517f08c379a000000000000000000000000000000000000000000000000000000000815260040161053e90610b1a565b60405180910390fd5b6003600081548092919061055a90610d7d565b91905055506040518060600160405280828152602001600081526020013373ffffffffffffffffffffffffffffffffffffffff16815250600080600354815260200190815260200160002060008201518160000190805190602001906105c19291906107ad565b506020820151816001015560408201518160020160006101000a81548173ffffffffffffffffffffffffffffffffffffffff021916908373ffffffffffffffffffffffffffffffffffffffff1602179055509050507f9c770c289ab5bf7e57cb1d23c8ceae993aea46eb64847072fd3d78ca60d3e43260035482604051610649929190610bbe565b60405180910390a150565b60016020528060005260406000206000915090505481565b60045481565b606060008060008060008681526020019081526020016000206040518060600160405290816000820180546106a690610d4b565b80601f01602080910402602001604051908101604052809291908181526020018280546106d290610d4b565b801561071f5780601f106106f45761010080835404028352916020019161071f565b820191906000526020600020905b81548152906001019060200180831161070257829003601f168201915b50505050508152602001600182015481526020016002820160009054906101000a900473ffffffffffffffffffffffffffffffffffffffff1673ffffffffffffffffffffffffffffffffffffffff1673ffffffffffffffffffffffffffffffffffffffff16815250509050806000015181602001518260400151935093509350509193909250565b60035481565b8280546107b990610d4b565b90600052602060002090601f0160209004810192826107db5760008555610822565b82601f106107f457805160ff1916838001178555610822565b82800160010185558215610822579182015b82811115610821578251825591602001919060010190610806565b5b50905061082f9190610833565b5090565b5b8082111561084c576000816000905550600101610834565b5090565b600061086361085e84610c1f565b610bee565b90508281526020810184848401111561087b57600080fd5b610886848285610d09565b509392505050565b60008135905061089d81610e64565b92915050565b600082601f8301126108b457600080fd5b81356108c4848260208601610850565b91505092915050565b6000813590506108dc81610e7b565b92915050565b6000602082840312156108f457600080fd5b60006109028482850161088e565b91505092915050565b60006020828403121561091d57600080fd5b600082013567ffffffffffffffff81111561093757600080fd5b610943848285016108a3565b91505092915050565b60006020828403121561095e57600080fd5b600061096c848285016108cd565b91505092915050565b61097e81610cc1565b82525050565b61098d81610cd3565b82525050565b600061099e82610c4f565b6109a88185610c5a565b93506109b8818560208601610d18565b6109c181610e53565b840191505092915050565b60006109d9602783610c5a565b91507f4f6e6c7920746f6b656e20686f6c646572732063616e2063726561746520707260008301527f6f706f73616c73000000000000000000000000000000000000000000000000006020830152604082019050919050565b6000610a3f601b83610c5a565b91507f4f6e6c7920746f6b656e20686f6c646572732063616e20766f746500000000006000830152602082019050919050565b6000610a7f601683610c5a565b91507f596f75206861766520616c726561647920766f746564000000000000000000006000830152602082019050919050565b610abb81610cff565b82525050565b6000602082019050610ad66000830184610984565b92915050565b60006060820190508181036000830152610af68186610993565b9050610b056020830185610ab2565b610b126040830184610975565b949350505050565b60006020820190508181036000830152610b33816109cc565b9050919050565b60006020820190508181036000830152610b5381610a32565b9050919050565b60006020820190508181036000830152610b7381610a72565b9050919050565b6000602082019050610b8f6000830184610ab2565b92915050565b6000604082019050610baa6000830185610ab2565b610bb76020830184610975565b9392505050565b6000604082019050610bd36000830185610ab2565b8181036020830152610be58184610993565b90509392505050565b6000604051905081810181811067ffffffffffffffff82111715610c1557610c14610e24565b5b8060405250919050565b600067ffffffffffffffff821115610c3a57610c39610e24565b5b601f19601f8301169050602081019050919050565b600081519050919050565b600082825260208201905092915050565b6000610c7682610cff565b9150610c8183610cff565b9250827fffffffffffffffffffffffffffffffffffffffffffffffffffffffffffffffff03821115610cb657610cb5610dc6565b5b828201905092915050565b6000610ccc82610cdf565b9050919050565b60008115159050919050565b600073ffffffffffffffffffffffffffffffffffffffff82169050919050565b6000819050919050565b82818337600083830152505050565b60005b83811015610d36578082015181840152602081019050610d1b565b83811115610d45576000848401525b50505050565b60006002820490506001821680610d6357607f821691505b60208210811415610d7757610d76610df5565b5b50919050565b6000610d8882610cff565b91507fffffffffffffffffffffffffffffffffffffffffffffffffffffffffffffffff821415610dbb57610dba610dc6565b5b600182019050919050565b7f4e487b7100000000000000000000000000000000000000000000000000000000600052601160045260246000fd5b7f4e487b7100000000000000000000000000000000000000000000000000000000600052602260045260246000fd5b7f4e487b7100000000000000000000000000000000000000000000000000000000600052604160045260246000fd5b6000601f19601f8301169050919050565b610e6d81610cc1565b8114610e7857600080fd5b50565b610e8481610cff565b8114610e8f57600080fd5b5056fea2646970667358221220fcaa5c5b2e6939ecaed25c23b69fbd5ec77578111144f016b46a405332741d5964736f6c63430008000033",
  "linkReferences": {},
  "deployedLinkReferences": {}
}